{
  "_format": "hh-sol-artifact-1",
  "contractName": "NFT",
  "sourceName": "contracts/NFT.sol",
  "abi": [
    {
      "inputs": [
        {
          "internalType": "string",
          "name": "_name",
          "type": "string"
        },
        {
          "internalType": "string",
          "name": "_symbol",
          "type": "string"
        }
      ],
      "stateMutability": "nonpayable",
      "type": "constructor"
    },
    {
      "anonymous": false,
      "inputs": [
        {
          "indexed": true,
          "internalType": "address",
          "name": "owner",
          "type": "address"
        },
        {
          "indexed": true,
          "internalType": "address",
          "name": "approved",
          "type": "address"
        },
        {
          "indexed": true,
          "internalType": "uint256",
          "name": "tokenId",
          "type": "uint256"
        }
      ],
      "name": "Approval",
      "type": "event"
    },
    {
      "anonymous": false,
      "inputs": [
        {
          "indexed": true,
          "internalType": "address",
          "name": "owner",
          "type": "address"
        },
        {
          "indexed": true,
          "internalType": "address",
          "name": "operator",
          "type": "address"
        },
        {
          "indexed": false,
          "internalType": "bool",
          "name": "approved",
          "type": "bool"
        }
      ],
      "name": "ApprovalForAll",
      "type": "event"
    },
    {
      "anonymous": false,
      "inputs": [
        {
          "indexed": true,
          "internalType": "address",
          "name": "previousOwner",
          "type": "address"
        },
        {
          "indexed": true,
          "internalType": "address",
          "name": "newOwner",
          "type": "address"
        }
      ],
      "name": "OwnershipTransferred",
      "type": "event"
    },
    {
      "anonymous": false,
      "inputs": [
        {
          "indexed": true,
          "internalType": "address",
          "name": "from",
          "type": "address"
        },
        {
          "indexed": true,
          "internalType": "address",
          "name": "to",
          "type": "address"
        },
        {
          "indexed": true,
          "internalType": "uint256",
          "name": "tokenId",
          "type": "uint256"
        }
      ],
      "name": "Transfer",
      "type": "event"
    },
    {
      "inputs": [
        {
          "internalType": "address",
          "name": "to",
          "type": "address"
        },
        {
          "internalType": "uint256",
          "name": "tokenId",
          "type": "uint256"
        }
      ],
      "name": "approve",
      "outputs": [],
      "stateMutability": "nonpayable",
      "type": "function"
    },
    {
      "inputs": [
        {
          "internalType": "address",
          "name": "owner",
          "type": "address"
        }
      ],
      "name": "balanceOf",
      "outputs": [
        {
          "internalType": "uint256",
          "name": "",
          "type": "uint256"
        }
      ],
      "stateMutability": "view",
      "type": "function"
    },
    {
      "inputs": [],
      "name": "cost",
      "outputs": [
        {
          "internalType": "uint256",
          "name": "",
          "type": "uint256"
        }
      ],
      "stateMutability": "view",
      "type": "function"
    },
    {
      "inputs": [
        {
          "internalType": "uint256",
          "name": "tokenId",
          "type": "uint256"
        }
      ],
      "name": "getApproved",
      "outputs": [
        {
          "internalType": "address",
          "name": "",
          "type": "address"
        }
      ],
      "stateMutability": "view",
      "type": "function"
    },
    {
      "inputs": [
        {
          "internalType": "address",
          "name": "owner",
          "type": "address"
        },
        {
          "internalType": "address",
          "name": "operator",
          "type": "address"
        }
      ],
      "name": "isApprovedForAll",
      "outputs": [
        {
          "internalType": "bool",
          "name": "",
          "type": "bool"
        }
      ],
      "stateMutability": "view",
      "type": "function"
    },
    {
      "inputs": [],
      "name": "maxMintAmount",
      "outputs": [
        {
          "internalType": "uint256",
          "name": "",
          "type": "uint256"
        }
      ],
      "stateMutability": "view",
      "type": "function"
    },
    {
      "inputs": [],
      "name": "maxSupply",
      "outputs": [
        {
          "internalType": "uint256",
          "name": "",
          "type": "uint256"
        }
      ],
      "stateMutability": "view",
      "type": "function"
    },
    {
      "inputs": [
        {
          "internalType": "uint256",
          "name": "_mintAmount",
          "type": "uint256"
        }
      ],
      "name": "mint",
      "outputs": [],
      "stateMutability": "payable",
      "type": "function"
    },
    {
      "inputs": [],
      "name": "name",
      "outputs": [
        {
          "internalType": "string",
          "name": "",
          "type": "string"
        }
      ],
      "stateMutability": "view",
      "type": "function"
    },
    {
      "inputs": [],
      "name": "owner",
      "outputs": [
        {
          "internalType": "address",
          "name": "",
          "type": "address"
        }
      ],
      "stateMutability": "view",
      "type": "function"
    },
    {
      "inputs": [
        {
          "internalType": "uint256",
          "name": "tokenId",
          "type": "uint256"
        }
      ],
      "name": "ownerOf",
      "outputs": [
        {
          "internalType": "address",
          "name": "",
          "type": "address"
        }
      ],
      "stateMutability": "view",
      "type": "function"
    },
    {
      "inputs": [],
      "name": "renounceOwnership",
      "outputs": [],
      "stateMutability": "nonpayable",
      "type": "function"
    },
    {
      "inputs": [
        {
          "internalType": "address",
          "name": "from",
          "type": "address"
        },
        {
          "internalType": "address",
          "name": "to",
          "type": "address"
        },
        {
          "internalType": "uint256",
          "name": "tokenId",
          "type": "uint256"
        }
      ],
      "name": "safeTransferFrom",
      "outputs": [],
      "stateMutability": "nonpayable",
      "type": "function"
    },
    {
      "inputs": [
        {
          "internalType": "address",
          "name": "from",
          "type": "address"
        },
        {
          "internalType": "address",
          "name": "to",
          "type": "address"
        },
        {
          "internalType": "uint256",
          "name": "tokenId",
          "type": "uint256"
        },
        {
          "internalType": "bytes",
          "name": "_data",
          "type": "bytes"
        }
      ],
      "name": "safeTransferFrom",
      "outputs": [],
      "stateMutability": "nonpayable",
      "type": "function"
    },
    {
      "inputs": [
        {
          "internalType": "address",
          "name": "operator",
          "type": "address"
        },
        {
          "internalType": "bool",
          "name": "approved",
          "type": "bool"
        }
      ],
      "name": "setApprovalForAll",
      "outputs": [],
      "stateMutability": "nonpayable",
      "type": "function"
    },
    {
      "inputs": [
        {
          "internalType": "bytes4",
          "name": "interfaceId",
          "type": "bytes4"
        }
      ],
      "name": "supportsInterface",
      "outputs": [
        {
          "internalType": "bool",
          "name": "",
          "type": "bool"
        }
      ],
      "stateMutability": "view",
      "type": "function"
    },
    {
      "inputs": [],
      "name": "symbol",
      "outputs": [
        {
          "internalType": "string",
          "name": "",
          "type": "string"
        }
      ],
      "stateMutability": "view",
      "type": "function"
    },
    {
      "inputs": [],
      "name": "tokenCounter",
      "outputs": [
        {
          "internalType": "uint256",
          "name": "",
          "type": "uint256"
        }
      ],
      "stateMutability": "view",
      "type": "function"
    },
    {
      "inputs": [
        {
          "internalType": "uint256",
          "name": "tokenId",
          "type": "uint256"
        }
      ],
      "name": "tokenURI",
      "outputs": [
        {
          "internalType": "string",
          "name": "",
          "type": "string"
        }
      ],
      "stateMutability": "view",
      "type": "function"
    },
    {
      "inputs": [
        {
          "internalType": "address",
          "name": "from",
          "type": "address"
        },
        {
          "internalType": "address",
          "name": "to",
          "type": "address"
        },
        {
          "internalType": "uint256",
          "name": "tokenId",
          "type": "uint256"
        }
      ],
      "name": "transferFrom",
      "outputs": [],
      "stateMutability": "nonpayable",
      "type": "function"
    },
    {
      "inputs": [
        {
          "internalType": "address",
          "name": "newOwner",
          "type": "address"
        }
      ],
      "name": "transferOwnership",
      "outputs": [],
      "stateMutability": "nonpayable",
      "type": "function"
    },
    {
      "inputs": [
        {
          "internalType": "string[]",
          "name": "imageParts",
          "type": "string[]"
        }
      ],
      "name": "updateImageParts",
      "outputs": [],
      "stateMutability": "nonpayable",
      "type": "function"
    }
  ],
  "bytecode": "0x608060405266470de4df820000600a556101f4600b556003600c553480156200002757600080fd5b5060405162006dec38038062006dec83398181016040528101906200004d919062000c42565b818181600090805190602001906200006792919062000b20565b5080600190805190602001906200008092919062000b20565b505050620000a36200009762000a5260201b60201c565b62000a5a60201b60201c565b6000600981905550600d80600181540180825580915050600190039060005260206000200160006040518060400160405280601881526020017f646174613a696d6167652f7376672b786d6c3b757466382c0000000000000000815250909190915090805190602001906200011a92919062000b20565b50600d8060018154018082558091505060019003906000526020600020016000604051806080016040528060538152602001620069a260539139909190915090805190602001906200016e92919062000b20565b50600d806001815401808255809150506001900390600052602060002001600060405180608001604052806055815260200162006d246055913990919091509080519060200190620001c292919062000b20565b50600d6040518060400160405280600681526020017f3c485545323e00000000000000000000000000000000000000000000000000008152509080600181540180825580915050600190039060005260206000200160009091909190915090805190602001906200023592919062000b20565b50600d80600181540180825580915050600190039060005260206000200160006040518060400160405280600181526020017f2c0000000000000000000000000000000000000000000000000000000000000081525090919091509080519060200190620002a592919062000b20565b50600d6040518060400160405280600d81526020017f3c53415455524154494f4e323e000000000000000000000000000000000000008152509080600181540180825580915050600190039060005260206000200160009091909190915090805190602001906200031892919062000b20565b50600d80600181540180825580915050600190039060005260206000200160006040518060400160405280600281526020017f252c000000000000000000000000000000000000000000000000000000000000815250909190915090805190602001906200038892919062000b20565b50600d6040518060400160405280600c81526020017f3c4c494748544e455353323e0000000000000000000000000000000000000000815250908060018154018082558091505060019003906000526020600020016000909190919091509080519060200190620003fb92919062000b20565b50600d80600181540180825580915050600190039060005260206000200160006040518060800160405280605f8152602001620068c8605f9139909190915090805190602001906200044f92919062000b20565b50600d6040518060400160405280600681526020017f3c485545313e0000000000000000000000000000000000000000000000000000815250908060018154018082558091505060019003906000526020600020016000909190919091509080519060200190620004c292919062000b20565b50600d80600181540180825580915050600190039060005260206000200160006040518060400160405280600181526020017f2c00000000000000000000000000000000000000000000000000000000000000815250909190915090805190602001906200053292919062000b20565b50600d6040518060400160405280600d81526020017f3c53415455524154494f4e313e00000000000000000000000000000000000000815250908060018154018082558091505060019003906000526020600020016000909190919091509080519060200190620005a592919062000b20565b50600d80600181540180825580915050600190039060005260206000200160006040518060400160405280600281526020017f252c000000000000000000000000000000000000000000000000000000000000815250909190915090805190602001906200061592919062000b20565b50600d6040518060400160405280600c81526020017f3c4c494748544e455353313e00000000000000000000000000000000000000008152509080600181540180825580915050600190039060005260206000200160009091909190915090805190602001906200068892919062000b20565b50600d80600181540180825580915050600190039060005260206000200160006040518060400160405280601781526020017f252927202f3e3c2f6c696e6561724772616469656e743e00000000000000000081525090919091509080519060200190620006f892919062000b20565b50600d8060018154018082558091505060019003906000526020600020016000604051806101400160405280610105815260200162006ba46101059139909190915090805190602001906200074f92919062000b20565b50600d80600181540180825580915050600190039060005260206000200160006040518060400160405280601b81526020017f3c636972636c652063783d273336272063793d2733362720723d27000000000081525090919091509080519060200190620007bf92919062000b20565b50600d6040518060400160405280600881526020017f3c5241444955533e0000000000000000000000000000000000000000000000008152509080600181540180825580915050600190039060005260206000200160009091909190915090805190602001906200083292919062000b20565b50600d80600181540180825580915050600190039060005260206000200160006040518060a001604052806073815260200162006d7960739139909190915090805190602001906200088692919062000b20565b50600d80600181540180825580915050600190039060005260206000200160006040518060c0016040528060998152602001620069f56099913990919091509080519060200190620008da92919062000b20565b50600d80600181540180825580915050600190039060005260206000200160006040518060a00160405280607b815260200162006927607b9139909190915090805190602001906200092e92919062000b20565b50600d80600181540180825580915050600190039060005260206000200160006040518060a00160405280607b815260200162006ca9607b9139909190915090805190602001906200098292919062000b20565b50600d8060018154018082558091505060019003906000526020600020016000604051806101400160405280610116815260200162006a8e610116913990919091509080519060200190620009d992919062000b20565b50600d80600181540180825580915050600190039060005260206000200160006040518060400160405280600681526020017f3c2f7376673e00000000000000000000000000000000000000000000000000008152509091909150908051906020019062000a4992919062000b20565b50505062000e25565b600033905090565b6000600660009054906101000a900473ffffffffffffffffffffffffffffffffffffffff16905081600660006101000a81548173ffffffffffffffffffffffffffffffffffffffff021916908373ffffffffffffffffffffffffffffffffffffffff1602179055508173ffffffffffffffffffffffffffffffffffffffff168173ffffffffffffffffffffffffffffffffffffffff167f8be0079c531659141344cd1fd0a4f28419497f9722a3daafe3b4186f6b6457e060405160405180910390a35050565b82805462000b2e9062000d4a565b90600052602060002090601f01602090048101928262000b52576000855562000b9e565b82601f1062000b6d57805160ff191683800117855562000b9e565b8280016001018555821562000b9e579182015b8281111562000b9d57825182559160200191906001019062000b80565b5b50905062000bad919062000bb1565b5090565b5b8082111562000bcc57600081600090555060010162000bb2565b5090565b600062000be762000be18462000cde565b62000cb5565b90508281526020810184848401111562000c0057600080fd5b62000c0d84828562000d14565b509392505050565b600082601f83011262000c2757600080fd5b815162000c3984826020860162000bd0565b91505092915050565b6000806040838503121562000c5657600080fd5b600083015167ffffffffffffffff81111562000c7157600080fd5b62000c7f8582860162000c15565b925050602083015167ffffffffffffffff81111562000c9d57600080fd5b62000cab8582860162000c15565b9150509250929050565b600062000cc162000cd4565b905062000ccf828262000d80565b919050565b6000604051905090565b600067ffffffffffffffff82111562000cfc5762000cfb62000de5565b5b62000d078262000e14565b9050602081019050919050565b60005b8381101562000d3457808201518184015260208101905062000d17565b8381111562000d44576000848401525b50505050565b6000600282049050600182168062000d6357607f821691505b6020821081141562000d7a5762000d7962000db6565b5b50919050565b62000d8b8262000e14565b810181811067ffffffffffffffff8211171562000dad5762000dac62000de5565b5b80604052505050565b7f4e487b7100000000000000000000000000000000000000000000000000000000600052602260045260246000fd5b7f4e487b7100000000000000000000000000000000000000000000000000000000600052604160045260246000fd5b6000601f19601f8301169050919050565b615a938062000e356000396000f3fe6080604052600436106101355760003560e01c80638da5cb5b116100ab578063c87b56dd1161006f578063c87b56dd14610405578063d082e38114610442578063d5abeb011461046d578063e34069af14610498578063e985e9c5146104c1578063f2fde38b146104fe57610135565b80638da5cb5b1461034157806395d89b411461036c578063a0712d6814610397578063a22cb465146103b3578063b88d4fde146103dc57610135565b8063239c70ae116100fd578063239c70ae1461023357806323b872dd1461025e57806342842e0e146102875780636352211e146102b057806370a08231146102ed578063715018a61461032a57610135565b806301ffc9a71461013a57806306fdde0314610177578063081812fc146101a2578063095ea7b3146101df57806313faede614610208575b600080fd5b34801561014657600080fd5b50610161600480360381019061015c91906144ea565b610527565b60405161016e9190614bf1565b60405180910390f35b34801561018357600080fd5b5061018c610609565b6040516101999190614c0c565b60405180910390f35b3480156101ae57600080fd5b506101c960048036038101906101c4919061453c565b61069b565b6040516101d69190614b8a565b60405180910390f35b3480156101eb57600080fd5b506102066004803603810190610201919061446d565b610720565b005b34801561021457600080fd5b5061021d610838565b60405161022a9190614e8e565b60405180910390f35b34801561023f57600080fd5b5061024861083e565b6040516102559190614e8e565b60405180910390f35b34801561026a57600080fd5b5061028560048036038101906102809190614367565b610844565b005b34801561029357600080fd5b506102ae60048036038101906102a99190614367565b6108a4565b005b3480156102bc57600080fd5b506102d760048036038101906102d2919061453c565b6108c4565b6040516102e49190614b8a565b60405180910390f35b3480156102f957600080fd5b50610314600480360381019061030f9190614302565b610976565b6040516103219190614e8e565b60405180910390f35b34801561033657600080fd5b5061033f610a2e565b005b34801561034d57600080fd5b50610356610ab6565b6040516103639190614b8a565b60405180910390f35b34801561037857600080fd5b50610381610ae0565b60405161038e9190614c0c565b60405180910390f35b6103b160048036038101906103ac919061453c565b610b72565b005b3480156103bf57600080fd5b506103da60048036038101906103d59190614431565b610cf6565b005b3480156103e857600080fd5b5061040360048036038101906103fe91906143b6565b610e77565b005b34801561041157600080fd5b5061042c6004803603810190610427919061453c565b610ed9565b6040516104399190614c0c565b60405180910390f35b34801561044e57600080fd5b50610457611178565b6040516104649190614e8e565b60405180910390f35b34801561047957600080fd5b5061048261117e565b60405161048f9190614e8e565b60405180910390f35b3480156104a457600080fd5b506104bf60048036038101906104ba91906144a9565b611184565b005b3480156104cd57600080fd5b506104e860048036038101906104e3919061432b565b61121a565b6040516104f59190614bf1565b60405180910390f35b34801561050a57600080fd5b5061052560048036038101906105209190614302565b6112ae565b005b60007f80ac58cd000000000000000000000000000000000000000000000000000000007bffffffffffffffffffffffffffffffffffffffffffffffffffffffff1916827bffffffffffffffffffffffffffffffffffffffffffffffffffffffff191614806105f257507f5b5e139f000000000000000000000000000000000000000000000000000000007bffffffffffffffffffffffffffffffffffffffffffffffffffffffff1916827bffffffffffffffffffffffffffffffffffffffffffffffffffffffff1916145b806106025750610601826113a6565b5b9050919050565b6060600080546106189061523d565b80601f01602080910402602001604051908101604052809291908181526020018280546106449061523d565b80156106915780601f1061066657610100808354040283529160200191610691565b820191906000526020600020905b81548152906001019060200180831161067457829003601f168201915b5050505050905090565b60006106a682611410565b6106e5576040517f08c379a00000000000000000000000000000000000000000000000000000000081526004016106dc90614d8e565b60405180910390fd5b6004600083815260200190815260200160002060009054906101000a900473ffffffffffffffffffffffffffffffffffffffff169050919050565b600061072b826108c4565b90508073ffffffffffffffffffffffffffffffffffffffff168373ffffffffffffffffffffffffffffffffffffffff16141561079c576040517f08c379a000000000000000000000000000000000000000000000000000000000815260040161079390614e4e565b60405180910390fd5b8073ffffffffffffffffffffffffffffffffffffffff166107bb61147c565b73ffffffffffffffffffffffffffffffffffffffff1614806107ea57506107e9816107e461147c565b61121a565b5b610829576040517f08c379a000000000000000000000000000000000000000000000000000000000815260040161082090614d0e565b60405180910390fd5b6108338383611484565b505050565b600a5481565b600c5481565b61085561084f61147c565b8261153d565b610894576040517f08c379a000000000000000000000000000000000000000000000000000000000815260040161088b90614e6e565b60405180910390fd5b61089f83838361161b565b505050565b6108bf83838360405180602001604052806000815250610e77565b505050565b6000806002600084815260200190815260200160002060009054906101000a900473ffffffffffffffffffffffffffffffffffffffff169050600073ffffffffffffffffffffffffffffffffffffffff168173ffffffffffffffffffffffffffffffffffffffff16141561096d576040517f08c379a000000000000000000000000000000000000000000000000000000000815260040161096490614d4e565b60405180910390fd5b80915050919050565b60008073ffffffffffffffffffffffffffffffffffffffff168273ffffffffffffffffffffffffffffffffffffffff1614156109e7576040517f08c379a00000000000000000000000000000000000000000000000000000000081526004016109de90614d2e565b60405180910390fd5b600360008373ffffffffffffffffffffffffffffffffffffffff1673ffffffffffffffffffffffffffffffffffffffff168152602001908152602001600020549050919050565b610a3661147c565b73ffffffffffffffffffffffffffffffffffffffff16610a54610ab6565b73ffffffffffffffffffffffffffffffffffffffff1614610aaa576040517f08c379a0000000000000000000000000000000000000000000000000000000008152600401610aa190614dce565b60405180910390fd5b610ab46000611877565b565b6000600660009054906101000a900473ffffffffffffffffffffffffffffffffffffffff16905090565b606060018054610aef9061523d565b80601f0160208091040260200160405190810160405280929190818152602001828054610b1b9061523d565b8015610b685780601f10610b3d57610100808354040283529160200191610b68565b820191906000526020600020905b815481529060010190602001808311610b4b57829003601f168201915b5050505050905090565b6000600954905060008211610bbc576040517f08c379a0000000000000000000000000000000000000000000000000000000008152600401610bb390614dae565b60405180910390fd5b600c54821115610c01576040517f08c379a0000000000000000000000000000000000000000000000000000000008152600401610bf890614c2e565b60405180910390fd5b600b548282610c109190615058565b1115610c51576040517f08c379a0000000000000000000000000000000000000000000000000000000008152600401610c4890614dee565b60405180910390fd5b610c59610ab6565b73ffffffffffffffffffffffffffffffffffffffff163373ffffffffffffffffffffffffffffffffffffffff1614610ca65781600a54610c9991906150df565b341015610ca557600080fd5b5b6000600190505b828111610cf157610cc9338284610cc49190615058565b61193d565b6001600954610cd89190615058565b6009819055508080610ce9906152a0565b915050610cad565b505050565b610cfe61147c565b73ffffffffffffffffffffffffffffffffffffffff168273ffffffffffffffffffffffffffffffffffffffff161415610d6c576040517f08c379a0000000000000000000000000000000000000000000000000000000008152600401610d6390614cce565b60405180910390fd5b8060056000610d7961147c565b73ffffffffffffffffffffffffffffffffffffffff1673ffffffffffffffffffffffffffffffffffffffff16815260200190815260200160002060008473ffffffffffffffffffffffffffffffffffffffff1673ffffffffffffffffffffffffffffffffffffffff16815260200190815260200160002060006101000a81548160ff0219169083151502179055508173ffffffffffffffffffffffffffffffffffffffff16610e2661147c565b73ffffffffffffffffffffffffffffffffffffffff167f17307eab39ab6107e8899845ad3d59bd9653f200f220920489ca2b5937696c3183604051610e6b9190614bf1565b60405180910390a35050565b610e88610e8261147c565b8361153d565b610ec7576040517f08c379a0000000000000000000000000000000000000000000000000000000008152600401610ebe90614e6e565b60405180910390fd5b610ed38484848461195b565b50505050565b6060610ee482611410565b610f23576040517f08c379a0000000000000000000000000000000000000000000000000000000008152600401610f1a90614e2e565b60405180910390fd5b600060019050426008541115610f5157610f4e42600854610f449190615139565b6301e133806119b7565b90505b6000610fa6610f606016611a1f565b610f95610f6d6002611a1f565b610f84600387600f0b611a4290919063ffffffff16565b600f0b611d5790919063ffffffff16565b600f0b611dc290919063ffffffff16565b90506000610fdb610fd6610fb985611e29565b610fc5604b6064611f4d565b600f0b611d5790919063ffffffff16565b611ffd565b9050600061101061100b610fee86611e29565b610ffa607d6064611f4d565b600f0b611d5790919063ffffffff16565b611ffd565b9050600061105c61102160ff611a1f565b61104b60ff61102f8b6108c4565b1673ffffffffffffffffffffffffffffffffffffffff16611a1f565b600f0b611f4d90919063ffffffff16565b905060006110c261106d60ff611a1f565b6110b160ff600861107d8d6108c4565b73ffffffffffffffffffffffffffffffffffffffff16901c1673ffffffffffffffffffffffffffffffffffffffff16611a1f565b600f0b611f4d90919063ffffffff16565b905060006110da836110d5610168611a1f565b611d57565b9050600061112e6110eb605a611a1f565b61111d6110f9610168611a1f565b61110c8761110760b4611a1f565b611d57565b600f0b611dc290919063ffffffff16565b600f0b612bfd90919063ffffffff16565b905061113b600954612c64565b611149888a89898787612e11565b60405160200161115a929190614b45565b60405160208183030381529060405298505050505050505050919050565b60095481565b600b5481565b61118c61147c565b73ffffffffffffffffffffffffffffffffffffffff166111aa610ab6565b73ffffffffffffffffffffffffffffffffffffffff1614611200576040517f08c379a00000000000000000000000000000000000000000000000000000000081526004016111f790614dce565b60405180910390fd5b80600d9080519060200190611216929190613fb2565b5050565b6000600560008473ffffffffffffffffffffffffffffffffffffffff1673ffffffffffffffffffffffffffffffffffffffff16815260200190815260200160002060008373ffffffffffffffffffffffffffffffffffffffff1673ffffffffffffffffffffffffffffffffffffffff16815260200190815260200160002060009054906101000a900460ff16905092915050565b6112b661147c565b73ffffffffffffffffffffffffffffffffffffffff166112d4610ab6565b73ffffffffffffffffffffffffffffffffffffffff161461132a576040517f08c379a000000000000000000000000000000000000000000000000000000000815260040161132190614dce565b60405180910390fd5b600073ffffffffffffffffffffffffffffffffffffffff168173ffffffffffffffffffffffffffffffffffffffff16141561139a576040517f08c379a000000000000000000000000000000000000000000000000000000000815260040161139190614c6e565b60405180910390fd5b6113a381611877565b50565b60007f01ffc9a7000000000000000000000000000000000000000000000000000000007bffffffffffffffffffffffffffffffffffffffffffffffffffffffff1916827bffffffffffffffffffffffffffffffffffffffffffffffffffffffff1916149050919050565b60008073ffffffffffffffffffffffffffffffffffffffff166002600084815260200190815260200160002060009054906101000a900473ffffffffffffffffffffffffffffffffffffffff1673ffffffffffffffffffffffffffffffffffffffff1614159050919050565b600033905090565b816004600083815260200190815260200160002060006101000a81548173ffffffffffffffffffffffffffffffffffffffff021916908373ffffffffffffffffffffffffffffffffffffffff160217905550808273ffffffffffffffffffffffffffffffffffffffff166114f7836108c4565b73ffffffffffffffffffffffffffffffffffffffff167f8c5be1e5ebec7d5bd14f71427d1e84f3dd0314c0f7b2291e5b200ac8c7c3b92560405160405180910390a45050565b600061154882611410565b611587576040517f08c379a000000000000000000000000000000000000000000000000000000000815260040161157e90614cee565b60405180910390fd5b6000611592836108c4565b90508073ffffffffffffffffffffffffffffffffffffffff168473ffffffffffffffffffffffffffffffffffffffff16148061160157508373ffffffffffffffffffffffffffffffffffffffff166115e98461069b565b73ffffffffffffffffffffffffffffffffffffffff16145b806116125750611611818561121a565b5b91505092915050565b8273ffffffffffffffffffffffffffffffffffffffff1661163b826108c4565b73ffffffffffffffffffffffffffffffffffffffff1614611691576040517f08c379a000000000000000000000000000000000000000000000000000000000815260040161168890614e0e565b60405180910390fd5b600073ffffffffffffffffffffffffffffffffffffffff168273ffffffffffffffffffffffffffffffffffffffff161415611701576040517f08c379a00000000000000000000000000000000000000000000000000000000081526004016116f890614cae565b60405180910390fd5b61170c8383836133bf565b611717600082611484565b6001600360008573ffffffffffffffffffffffffffffffffffffffff1673ffffffffffffffffffffffffffffffffffffffff16815260200190815260200160002060008282546117679190615139565b925050819055506001600360008473ffffffffffffffffffffffffffffffffffffffff1673ffffffffffffffffffffffffffffffffffffffff16815260200190815260200160002060008282546117be9190615058565b92505081905550816002600083815260200190815260200160002060006101000a81548173ffffffffffffffffffffffffffffffffffffffff021916908373ffffffffffffffffffffffffffffffffffffffff160217905550808273ffffffffffffffffffffffffffffffffffffffff168473ffffffffffffffffffffffffffffffffffffffff167fddf252ad1be2c89b69c2b068fc378daa952ba7f163c4a11628f55a4df523b3ef60405160405180910390a4505050565b6000600660009054906101000a900473ffffffffffffffffffffffffffffffffffffffff16905081600660006101000a81548173ffffffffffffffffffffffffffffffffffffffff021916908373ffffffffffffffffffffffffffffffffffffffff1602179055508173ffffffffffffffffffffffffffffffffffffffff168173ffffffffffffffffffffffffffffffffffffffff167f8be0079c531659141344cd1fd0a4f28419497f9722a3daafe3b4186f6b6457e060405160405180910390a35050565b6119578282604051806020016040528060008152506133e1565b5050565b61196684848461161b565b6119728484848461343c565b6119b1576040517f08c379a00000000000000000000000000000000000000000000000000000000081526004016119a890614c4e565b60405180910390fd5b50505050565b6000808214156119c657600080fd5b60006119d284846135d3565b90506f7fffffffffffffffffffffffffffffff6fffffffffffffffffffffffffffffffff16816fffffffffffffffffffffffffffffffff161115611a1557600080fd5b8091505092915050565b6000677fffffffffffffff821115611a3657600080fd5b604082901b9050919050565b600080600084600f0b128015611a5a57506001808416145b905060008085600f0b12611a6e5784611a73565b846000035b6fffffffffffffffffffffffffffffffff16905060007001000000000000000000000000000000009050680100000000000000008211611b4d57603f82901b91505b60008514611b415760006001861614611ad257607f828202901c90505b607f828302901c915060006002861614611af057607f828202901c90505b607f828302901c915060006004861614611b0e57607f828202901c90505b607f828302901c915060006008861614611b2c57607f828202901c90505b607f828302901c9150600485901c9450611ab5565b604081901c9050611ce7565b6000603f90506c01000000000000000000000000831015611b7657602083901b92506020810390505b6e010000000000000000000000000000831015611b9b57601083901b92506010810390505b6f01000000000000000000000000000000831015611bc157600883901b92506008810390505b6f10000000000000000000000000000000831015611be757600483901b92506004810390505b6f40000000000000000000000000000000831015611c0d57600283901b92506002810390505b6f80000000000000000000000000000000831015611c3357600183901b92506001810390505b60005b60008714611cce5760408210611c4b57600080fd5b60006001881614611c8c57607f848402901c92508181019050700100000000000000000000000000000000831115611c8b57600183901c92506001810190505b5b607f848502901c9350600182901b91507001000000000000000000000000000000008410611cc257600184901c93506001820191505b600187901c9650611c36565b60408110611cdb57600080fd5b8060400383901c925050505b600083611cf45781611cf9565b816000035b90507fffffffffffffffffffffffffffffffff80000000000000000000000000000000600f0b8112158015611d4157506f7fffffffffffffffffffffffffffffff600f0b8113155b611d4a57600080fd5b8094505050505092915050565b600080604083600f0b85600f0b02901d90507fffffffffffffffffffffffffffffffff80000000000000000000000000000000600f0b8112158015611daf57506f7fffffffffffffffffffffffffffffff600f0b8113155b611db857600080fd5b8091505092915050565b60008082600f0b84600f0b0190507fffffffffffffffffffffffffffffffff80000000000000000000000000000000600f0b8112158015611e1657506f7fffffffffffffffffffffffffffffff600f0b8113155b611e1f57600080fd5b8091505092915050565b60008082600f0b13611e3a57600080fd5b60008083600f0b9050680100000000000000008112611e6157604081901d90506040820191505b6401000000008112611e7b57602081901d90506020820191505b620100008112611e9357601081901d90506010820191505b6101008112611eaa57600881901d90506008820191505b60108112611ec057600481901d90506004820191505b60048112611ed657600281901d90506002820191505b60028112611ee5576001820191505b60006040808403901b9050600083607f0386600f0b901b9050600067800000000000000090505b6000811315611f40578182029150600060ff83901c905080607f0183901c92508082028401935050600181901d9050611f0c565b5081945050505050919050565b60008082600f0b1415611f5f57600080fd5b600082600f0b604085600f0b901b81611fa1577f4e487b7100000000000000000000000000000000000000000000000000000000600052601260045260246000fd5b0590507fffffffffffffffffffffffffffffffff80000000000000000000000000000000600f0b8112158015611fea57506f7fffffffffffffffffffffffffffffff600f0b8113155b611ff357600080fd5b8091505092915050565b60006840000000000000000082600f0b1261201757600080fd5b7fffffffffffffffffffffffffffffffffffffffffffffffc0000000000000000082600f0b121561204b5760009050612bf8565b60006f80000000000000000000000000000000905060006780000000000000008416600f0b131561209157608070016a09e667f3bcc908b2fb1366ea957d3e8202901c90505b60006740000000000000008416600f0b13156120c25760807001306fe0a31b7152de8d5a46305c85edec8202901c90505b60006720000000000000008416600f0b13156120f35760807001172b83c7d517adcdf7c8c50eb14a791f8202901c90505b60006710000000000000008416600f0b131561212457608070010b5586cf9890f6298b92b71842a983638202901c90505b60006708000000000000008416600f0b13156121555760807001059b0d31585743ae7c548eb68ca417fd8202901c90505b60006704000000000000008416600f0b1315612186576080700102c9a3e778060ee6f7caca4f7a29bde88202901c90505b60006702000000000000008416600f0b13156121b757608070010163da9fb33356d84a66ae336dcdfa3f8202901c90505b60006701000000000000008416600f0b13156121e8576080700100b1afa5abcbed6129ab13ec11dc95438202901c90505b600066800000000000008416600f0b131561221857608070010058c86da1c09ea1ff19d294cf2f679b8202901c90505b600066400000000000008416600f0b13156122485760807001002c605e2e8cec506d21bfc89a23a00f8202901c90505b600066200000000000008416600f0b1315612278576080700100162f3904051fa128bca9c55c31e5df8202901c90505b600066100000000000008416600f0b13156122a85760807001000b175effdc76ba38e31671ca9397258202901c90505b600066080000000000008416600f0b13156122d8576080700100058ba01fb9f96d6cacd4b180917c3d8202901c90505b600066040000000000008416600f0b131561230857608070010002c5cc37da9491d0985c348c68e7b38202901c90505b600066020000000000008416600f0b13156123385760807001000162e525ee054754457d59952920268202901c90505b600066010000000000008416600f0b131561236857608070010000b17255775c040618bf4a4ade83fc8202901c90505b6000658000000000008416600f0b13156123975760807001000058b91b5bc9ae2eed81e9b7d4cfab8202901c90505b6000654000000000008416600f0b13156123c6576080700100002c5c89d5ec6ca4d7c8acc017b7c98202901c90505b6000652000000000008416600f0b13156123f557608070010000162e43f4f831060e02d839a9d16d8202901c90505b6000651000000000008416600f0b1315612424576080700100000b1721bcfc99d9f890ea069117638202901c90505b6000650800000000008416600f0b131561245357608070010000058b90cf1e6d97f9ca14dbcc16288202901c90505b6000650400000000008416600f0b13156124825760807001000002c5c863b73f016468f6bac5ca2b8202901c90505b6000650200000000008416600f0b13156124b1576080700100000162e430e5a18f6119e3c02282a58202901c90505b6000650100000000008416600f0b13156124e05760807001000000b1721835514b86e6d96efd1bfe8202901c90505b60006480000000008416600f0b131561250e576080700100000058b90c0b48c6be5df846c5b2ef8202901c90505b60006440000000008416600f0b131561253c57608070010000002c5c8601cc6b9e94213c72737a8202901c90505b60006420000000008416600f0b131561256a5760807001000000162e42fff037df38aa2b219f068202901c90505b60006410000000008416600f0b131561259857608070010000000b17217fba9c739aa5819f44f98202901c90505b60006408000000008416600f0b13156125c65760807001000000058b90bfcdee5acd3c1cedc8238202901c90505b60006404000000008416600f0b13156125f4576080700100000002c5c85fe31f35a6a30da1be508202901c90505b60006402000000008416600f0b131561262257608070010000000162e42ff0999ce3541b9fffcf8202901c90505b60006401000000008416600f0b1315612650576080700100000000b17217f80f4ef5aadda455548202901c90505b600063800000008416600f0b131561267d57608070010000000058b90bfbf8479bd5a81b51ad8202901c90505b600063400000008416600f0b13156126aa5760807001000000002c5c85fdf84bd62ae30a74cc8202901c90505b600063200000008416600f0b13156126d7576080700100000000162e42fefb2fed257559bdaa8202901c90505b600063100000008416600f0b13156127045760807001000000000b17217f7d5a7716bba4a9ae8202901c90505b600063080000008416600f0b1315612731576080700100000000058b90bfbe9ddbac5e109cce8202901c90505b600063040000008416600f0b131561275e57608070010000000002c5c85fdf4b15de6f17eb0d8202901c90505b600063020000008416600f0b131561278b5760807001000000000162e42fefa494f1478fde058202901c90505b600063010000008416600f0b13156127b857608070010000000000b17217f7d20cf927c8e94c8202901c90505b6000628000008416600f0b13156127e45760807001000000000058b90bfbe8f71cb4e4b33d8202901c90505b6000624000008416600f0b1315612810576080700100000000002c5c85fdf477b662b269458202901c90505b6000622000008416600f0b131561283c57608070010000000000162e42fefa3ae53369388c8202901c90505b6000621000008416600f0b1315612868576080700100000000000b17217f7d1d351a389d408202901c90505b6000620800008416600f0b131561289457608070010000000000058b90bfbe8e8b2d3d4ede8202901c90505b6000620400008416600f0b13156128c05760807001000000000002c5c85fdf4741bea6e77e8202901c90505b6000620200008416600f0b13156128ec576080700100000000000162e42fefa39fe95583c28202901c90505b6000620100008416600f0b13156129185760807001000000000000b17217f7d1cfb72b45e18202901c90505b60006180008416600f0b1315612943576080700100000000000058b90bfbe8e7cc35c3f08202901c90505b60006140008416600f0b131561296e57608070010000000000002c5c85fdf473e242ea388202901c90505b60006120008416600f0b13156129995760807001000000000000162e42fefa39f02b772c8202901c90505b60006110008416600f0b13156129c457608070010000000000000b17217f7d1cf7d83c1a8202901c90505b60006108008416600f0b13156129ef5760807001000000000000058b90bfbe8e7bdcbe2e8202901c90505b60006104008416600f0b1315612a1a576080700100000000000002c5c85fdf473dea871f8202901c90505b60006102008416600f0b1315612a4557608070010000000000000162e42fefa39ef44d918202901c90505b60006101008416600f0b1315612a70576080700100000000000000b17217f7d1cf79e9498202901c90505b600060808416600f0b1315612a9a57608070010000000000000058b90bfbe8e7bce5448202901c90505b600060408416600f0b1315612ac45760807001000000000000002c5c85fdf473de6eca8202901c90505b600060208416600f0b1315612aee576080700100000000000000162e42fefa39ef366f8202901c90505b600060108416600f0b1315612b185760807001000000000000000b17217f7d1cf79afa8202901c90505b600060088416600f0b1315612b42576080700100000000000000058b90bfbe8e7bcd6d8202901c90505b600060048416600f0b1315612b6c57608070010000000000000002c5c85fdf473de6b28202901c90505b600060028416600f0b1315612b965760807001000000000000000162e42fefa39ef3588202901c90505b600060018416600f0b1315612bc057608070010000000000000000b17217f7d1cf79ab8202901c90505b604083600f0b901d603f03600f0b81901c90506f7fffffffffffffffffffffffffffffff600f0b811115612bf357600080fd5b809150505b919050565b60008082600f0b84600f0b0390507fffffffffffffffffffffffffffffffff80000000000000000000000000000000600f0b8112158015612c5157506f7fffffffffffffffffffffffffffffff600f0b8113155b612c5a57600080fd5b8091505092915050565b60606000821415612cac576040518060400160405280600181526020017f30000000000000000000000000000000000000000000000000000000000000008152509050612e0c565b600082905060005b60008214612cde578080612cc7906152a0565b915050600a82612cd791906150ae565b9150612cb4565b60008167ffffffffffffffff811115612d20577f4e487b7100000000000000000000000000000000000000000000000000000000600052604160045260246000fd5b6040519080825280601f01601f191660200182016040528015612d525781602001600182028036833780820191505090505b5090505b60008514612e0557600182612d6b9190615139565b9150600a85612d7a919061531a565b6030612d869190615058565b60f81b818381518110612dc2577f4e487b7100000000000000000000000000000000000000000000000000000000600052603260045260246000fd5b60200101907effffffffffffffffffffffffffffffffffffffffffffffffffffffffffffff1916908160001a905350600a85612dfe91906150ae565b9450612d56565b8093505050505b919050565b60608060005b600d805490508110156133b057612ea6600d8281548110612e61577f4e487b7100000000000000000000000000000000000000000000000000000000600052603260045260246000fd5b906000526020600020016040518060400160405280600881526020017f3c5241444955533e000000000000000000000000000000000000000000000000815250613848565b15612edc5781612eb58a6138a1565b604051602001612ec6929190614aa0565b604051602081830303815290604052915061339d565b612f5e600d8281548110612f19577f4e487b7100000000000000000000000000000000000000000000000000000000600052603260045260246000fd5b906000526020600020016040518060400160405280600681526020017f3c485545313e0000000000000000000000000000000000000000000000000000815250613848565b15612f955781612f6e89876138b3565b604051602001612f7f929190614aa0565b604051602081830303815290604052915061339c565b613017600d8281548110612fd2577f4e487b7100000000000000000000000000000000000000000000000000000000600052603260045260246000fd5b906000526020600020016040518060400160405280600d81526020017f3c53415455524154494f4e313e00000000000000000000000000000000000000815250613848565b1561304d57816130268861396a565b604051602001613037929190614aa0565b604051602081830303815290604052915061339b565b6130cf600d828154811061308a577f4e487b7100000000000000000000000000000000000000000000000000000000600052603260045260246000fd5b906000526020600020016040518060400160405280600c81526020017f3c4c494748544e455353313e0000000000000000000000000000000000000000815250613848565b1561310557816130de8861399a565b6040516020016130ef929190614aa0565b604051602081830303815290604052915061339a565b613187600d8281548110613142577f4e487b7100000000000000000000000000000000000000000000000000000000600052603260045260246000fd5b906000526020600020016040518060400160405280600681526020017f3c485545323e0000000000000000000000000000000000000000000000000000815250613848565b156131bf57816131988987876139de565b6040516020016131a9929190614aa0565b6040516020818303038152906040529150613399565b613241600d82815481106131fc577f4e487b7100000000000000000000000000000000000000000000000000000000600052603260045260246000fd5b906000526020600020016040518060400160405280600d81526020017f3c53415455524154494f4e323e00000000000000000000000000000000000000815250613848565b15613277578161325087613aab565b604051602001613261929190614aa0565b6040516020818303038152906040529150613398565b6132f9600d82815481106132b4577f4e487b7100000000000000000000000000000000000000000000000000000000600052603260045260246000fd5b906000526020600020016040518060400160405280600c81526020017f3c4c494748544e455353323e0000000000000000000000000000000000000000815250613848565b1561332f578161330887613adb565b604051602001613319929190614aa0565b6040516020818303038152906040529150613397565b81600d828154811061336a577f4e487b7100000000000000000000000000000000000000000000000000000000600052603260045260246000fd5b90600052602060002001604051602001613385929190614ac4565b60405160208183030381529060405291505b5b5b5b5b5b5b80806133a8906152a0565b915050612e17565b50809150509695505050505050565b426007819055506301e13380426133d69190615058565b600881905550505050565b6133eb8383613b1f565b6133f8600084848461343c565b613437576040517f08c379a000000000000000000000000000000000000000000000000000000000815260040161342e90614c4e565b60405180910390fd5b505050565b600061345d8473ffffffffffffffffffffffffffffffffffffffff16613ced565b156135c6578373ffffffffffffffffffffffffffffffffffffffff1663150b7a0261348661147c565b8786866040518563ffffffff1660e01b81526004016134a89493929190614ba5565b602060405180830381600087803b1580156134c257600080fd5b505af19250505080156134f357506040513d601f19601f820116820180604052508101906134f09190614513565b60015b613576573d8060008114613523576040519150601f19603f3d011682016040523d82523d6000602084013e613528565b606091505b5060008151141561356e576040517f08c379a000000000000000000000000000000000000000000000000000000000815260040161356590614c4e565b60405180910390fd5b805181602001fd5b63150b7a0260e01b7bffffffffffffffffffffffffffffffffffffffffffffffffffffffff1916817bffffffffffffffffffffffffffffffffffffffffffffffffffffffff1916149150506135cb565b600190505b949350505050565b6000808214156135e257600080fd5b600077ffffffffffffffffffffffffffffffffffffffffffffffff84116136455782604085901b8161363d577f4e487b7100000000000000000000000000000000000000000000000000000000600052601260045260246000fd5b049050613821565b600060c09050600060c086901c9050640100000000811061366e57602081901c90506020820191505b62010000811061368657601081901c90506010820191505b610100811061369d57600881901c90506008820191505b601081106136b357600481901c90506004820191505b600481106136c957600281901c90506002820191505b600281106136d8576001820191505b600160bf830360018703901c018260ff0387901b81613720577f4e487b7100000000000000000000000000000000000000000000000000000000600052601260045260246000fd5b0492506fffffffffffffffffffffffffffffffff83111561374057600080fd5b6000608086901c8402905060006fffffffffffffffffffffffffffffffff871685029050600060c089901c9050600060408a901b905082811015613785576001820391505b8281039050608084901b9250828110156137a0576001820391505b8281039050608084901c82146137df577f4e487b7100000000000000000000000000000000000000000000000000000000600052600160045260246000fd5b888181613815577f4e487b7100000000000000000000000000000000000000000000000000000000600052601260045260246000fd5b04870196505050505050505b6fffffffffffffffffffffffffffffffff81111561383e57600080fd5b8091505092915050565b60008160405160200161385b9190614ae8565b60405160208183030381529060405280519060200120836040516020016138829190614b2e565b6040516020818303038152906040528051906020012014905092915050565b60606138ac82613d00565b9050919050565b606060006138eb6138d96138c7603c611a1f565b86600f0b611d5790919063ffffffff16565b84600f0b611dc290919063ffffffff16565b9050600061391161271067ffffffffffffffff8416600f0b613d7090919063ffffffff16565b905061393761016861392584600f0b613e2b565b61392f91906152e9565b60070b613e3c565b61394082613e51565b604051602001613951929190614aff565b6040516020818303038152906040529250505092915050565b606061399361398e61397c6064611a1f565b84600f0b611d5790919063ffffffff16565b613d00565b9050919050565b60606139d76139a9600f611a1f565b6139c86139b66046611a1f565b85600f0b611d5790919063ffffffff16565b6139d29190614fd4565b613d00565b9050919050565b60606000613a2b613a1984613a086139f6603c611a1f565b89600f0b611d5790919063ffffffff16565b600f0b611dc290919063ffffffff16565b85600f0b611dc290919063ffffffff16565b90506000613a5161271067ffffffffffffffff8416600f0b613d7090919063ffffffff16565b9050613a77610168613a6584600f0b613e2b565b613a6f91906152e9565b60070b613e3c565b613a8082613e51565b604051602001613a91929190614aff565b604051602081830303815290604052925050509392505050565b6060613ad4613acf613abd6032611a1f565b84600f0b611d5790919063ffffffff16565b613d00565b9050919050565b6060613b18613aea600f611a1f565b613b09613af76023611a1f565b85600f0b611d5790919063ffffffff16565b613b139190614fd4565b613d00565b9050919050565b600073ffffffffffffffffffffffffffffffffffffffff168273ffffffffffffffffffffffffffffffffffffffff161415613b8f576040517f08c379a0000000000000000000000000000000000000000000000000000000008152600401613b8690614d6e565b60405180910390fd5b613b9881611410565b15613bd8576040517f08c379a0000000000000000000000000000000000000000000000000000000008152600401613bcf90614c8e565b60405180910390fd5b613be4600083836133bf565b6001600360008473ffffffffffffffffffffffffffffffffffffffff1673ffffffffffffffffffffffffffffffffffffffff1681526020019081526020016000206000828254613c349190615058565b92505081905550816002600083815260200190815260200160002060006101000a81548173ffffffffffffffffffffffffffffffffffffffff021916908373ffffffffffffffffffffffffffffffffffffffff160217905550808273ffffffffffffffffffffffffffffffffffffffff16600073ffffffffffffffffffffffffffffffffffffffff167fddf252ad1be2c89b69c2b068fc378daa952ba7f163c4a11628f55a4df523b3ef60405160405180910390a45050565b600080823b905060008111915050919050565b60606000613d2661271067ffffffffffffffff8516600f0b613d7090919063ffffffff16565b9050613d3f613d3784600f0b613e2b565b60070b612c64565b613d4882613e51565b604051602001613d59929190614aff565b604051602081830303815290604052915050919050565b600080821415613d835760009050613e25565b600083600f0b1215613d9457600080fd5b600060406fffffffffffffffffffffffffffffffff841685600f0b02901c90506000608084901c85600f0b02905077ffffffffffffffffffffffffffffffffffffffffffffffff811115613de757600080fd5b604081901b9050817fffffffffffffffffffffffffffffffffffffffffffffffffffffffffffffffff03811115613e1d57600080fd5b818101925050505b92915050565b6000604082600f0b901d9050919050565b6060613e4a82600f0b612c64565b9050919050565b60606000600467ffffffffffffffff811115613e96577f4e487b7100000000000000000000000000000000000000000000000000000000600052604160045260246000fd5b6040519080825280601f01601f191660200182016040528015613ec85781602001600182028036833780820191505090505b50905060005b6004811015613f8957600a84613ee4919061531a565b6030613ef09190615058565b60f81b82826003613f019190615139565b81518110613f38577f4e487b7100000000000000000000000000000000000000000000000000000000600052603260045260246000fd5b60200101907effffffffffffffffffffffffffffffffffffffffffffffffffffffffffffff1916908160001a905350600a84613f7491906150ae565b93508080613f81906152a0565b915050613ece565b5080604051602001613f9b9190614a89565b604051602081830303815290604052915050919050565b828054828255906000526020600020908101928215614001579160200282015b82811115614000578251829080519060200190613ff0929190614012565b5091602001919060010190613fd2565b5b50905061400e9190614098565b5090565b82805461401e9061523d565b90600052602060002090601f0160209004810192826140405760008555614087565b82601f1061405957805160ff1916838001178555614087565b82800160010185558215614087579182015b8281111561408657825182559160200191906001019061406b565b5b50905061409491906140bc565b5090565b5b808211156140b857600081816140af91906140d9565b50600101614099565b5090565b5b808211156140d55760008160009055506001016140bd565b5090565b5080546140e59061523d565b6000825580601f106140f75750614116565b601f01602090049060005260206000209081019061411591906140bc565b5b50565b600061412c61412784614ece565b614ea9565b9050808382526020820190508285602086028201111561414b57600080fd5b60005b8581101561419557813567ffffffffffffffff81111561416d57600080fd5b80860161417a89826142c3565b8552602085019450602084019350505060018101905061414e565b5050509392505050565b60006141b26141ad84614efa565b614ea9565b9050828152602081018484840111156141ca57600080fd5b6141d58482856151fb565b509392505050565b60006141f06141eb84614f2b565b614ea9565b90508281526020810184848401111561420857600080fd5b6142138482856151fb565b509392505050565b60008135905061422a81615a01565b92915050565b600082601f83011261424157600080fd5b8135614251848260208601614119565b91505092915050565b60008135905061426981615a18565b92915050565b60008135905061427e81615a2f565b92915050565b60008151905061429381615a2f565b92915050565b600082601f8301126142aa57600080fd5b81356142ba84826020860161419f565b91505092915050565b600082601f8301126142d457600080fd5b81356142e48482602086016141dd565b91505092915050565b6000813590506142fc81615a46565b92915050565b60006020828403121561431457600080fd5b60006143228482850161421b565b91505092915050565b6000806040838503121561433e57600080fd5b600061434c8582860161421b565b925050602061435d8582860161421b565b9150509250929050565b60008060006060848603121561437c57600080fd5b600061438a8682870161421b565b935050602061439b8682870161421b565b92505060406143ac868287016142ed565b9150509250925092565b600080600080608085870312156143cc57600080fd5b60006143da8782880161421b565b94505060206143eb8782880161421b565b93505060406143fc878288016142ed565b925050606085013567ffffffffffffffff81111561441957600080fd5b61442587828801614299565b91505092959194509250565b6000806040838503121561444457600080fd5b60006144528582860161421b565b92505060206144638582860161425a565b9150509250929050565b6000806040838503121561448057600080fd5b600061448e8582860161421b565b925050602061449f858286016142ed565b9150509250929050565b6000602082840312156144bb57600080fd5b600082013567ffffffffffffffff8111156144d557600080fd5b6144e184828501614230565b91505092915050565b6000602082840312156144fc57600080fd5b600061450a8482850161426f565b91505092915050565b60006020828403121561452557600080fd5b600061453384828501614284565b91505092915050565b60006020828403121561454e57600080fd5b600061455c848285016142ed565b91505092915050565b61456e8161516d565b82525050565b61457d8161517f565b82525050565b600061458e82614f86565b6145988185614f9c565b93506145a881856020860161520a565b6145b181615407565b840191505092915050565b60006145c782614f86565b6145d18185614fad565b93506145e181856020860161520a565b80840191505092915050565b60006145f882614f91565b6146028185614fb8565b935061461281856020860161520a565b61461b81615407565b840191505092915050565b600061463182614f91565b61463b8185614fc9565b935061464b81856020860161520a565b80840191505092915050565b600081546146648161523d565b61466e8186614fc9565b94506001821660008114614689576001811461469a576146cd565b60ff198316865281860193506146cd565b6146a385614f71565b60005b838110156146c5578154818901526001820191506020810190506146a6565b838801955050505b50505092915050565b600081546146e38161523d565b6146ed8186614fc9565b9450600182166000811461470857600181146147195761474c565b60ff1983168652818601935061474c565b61472285614f5c565b60005b8381101561474457815481890152600182019150602081019050614725565b838801955050505b50505092915050565b6000614762601083614fb8565b915061476d82615418565b602082019050919050565b6000614785603283614fb8565b915061479082615441565b604082019050919050565b60006147a8602683614fb8565b91506147b382615490565b604082019050919050565b60006147cb601c83614fb8565b91506147d6826154df565b602082019050919050565b60006147ee602483614fb8565b91506147f982615508565b604082019050919050565b6000614811605983614fc9565b915061481c82615557565b605982019050919050565b6000614834601983614fb8565b915061483f826155cc565b602082019050919050565b6000614857602c83614fb8565b9150614862826155f5565b604082019050919050565b600061487a603883614fb8565b915061488582615644565b604082019050919050565b600061489d600183614fc9565b91506148a882615693565b600182019050919050565b60006148c0602a83614fb8565b91506148cb826156bc565b604082019050919050565b60006148e3602983614fb8565b91506148ee8261570b565b604082019050919050565b6000614906600283614fc9565b91506149118261575a565b600282019050919050565b6000614929602083614fb8565b915061493482615783565b602082019050919050565b600061494c602c83614fb8565b9150614957826157ac565b604082019050919050565b600061496f601983614fb8565b915061497a826157fb565b602082019050919050565b6000614992602083614fb8565b915061499d82615824565b602082019050919050565b60006149b5601f83614fb8565b91506149c08261584d565b602082019050919050565b60006149d8602983614fb8565b91506149e382615876565b604082019050919050565b60006149fb603583614fc9565b9150614a06826158c5565b603582019050919050565b6000614a1e602f83614fb8565b9150614a2982615914565b604082019050919050565b6000614a41602183614fb8565b9150614a4c82615963565b604082019050919050565b6000614a64603183614fb8565b9150614a6f826159b2565b604082019050919050565b614a83816151f1565b82525050565b6000614a9582846145bc565b915081905092915050565b6000614aac82856145bc565b9150614ab88284614626565b91508190509392505050565b6000614ad082856145bc565b9150614adc82846146d6565b91508190509392505050565b6000614af48284614626565b915081905092915050565b6000614b0b8285614626565b9150614b1682614890565b9150614b228284614626565b91508190509392505050565b6000614b3a8284614657565b915081905092915050565b6000614b5082614804565b9150614b5c8285614626565b9150614b67826149ee565b9150614b738284614626565b9150614b7e826148f9565b91508190509392505050565b6000602082019050614b9f6000830184614565565b92915050565b6000608082019050614bba6000830187614565565b614bc76020830186614565565b614bd46040830185614a7a565b8181036060830152614be68184614583565b905095945050505050565b6000602082019050614c066000830184614574565b92915050565b60006020820190508181036000830152614c2681846145ed565b905092915050565b60006020820190508181036000830152614c4781614755565b9050919050565b60006020820190508181036000830152614c6781614778565b9050919050565b60006020820190508181036000830152614c878161479b565b9050919050565b60006020820190508181036000830152614ca7816147be565b9050919050565b60006020820190508181036000830152614cc7816147e1565b9050919050565b60006020820190508181036000830152614ce781614827565b9050919050565b60006020820190508181036000830152614d078161484a565b9050919050565b60006020820190508181036000830152614d278161486d565b9050919050565b60006020820190508181036000830152614d47816148b3565b9050919050565b60006020820190508181036000830152614d67816148d6565b9050919050565b60006020820190508181036000830152614d878161491c565b9050919050565b60006020820190508181036000830152614da78161493f565b9050919050565b60006020820190508181036000830152614dc781614962565b9050919050565b60006020820190508181036000830152614de781614985565b9050919050565b60006020820190508181036000830152614e07816149a8565b9050919050565b60006020820190508181036000830152614e27816149cb565b9050919050565b60006020820190508181036000830152614e4781614a11565b9050919050565b60006020820190508181036000830152614e6781614a34565b9050919050565b60006020820190508181036000830152614e8781614a57565b9050919050565b6000602082019050614ea36000830184614a7a565b92915050565b6000614eb3614ec4565b9050614ebf828261526f565b919050565b6000604051905090565b600067ffffffffffffffff821115614ee957614ee86153d8565b5b602082029050602081019050919050565b600067ffffffffffffffff821115614f1557614f146153d8565b5b614f1e82615407565b9050602081019050919050565b600067ffffffffffffffff821115614f4657614f456153d8565b5b614f4f82615407565b9050602081019050919050565b60008190508160005260206000209050919050565b60008190508160005260206000209050919050565b600081519050919050565b600081519050919050565b600082825260208201905092915050565b600081905092915050565b600082825260208201905092915050565b600081905092915050565b6000614fdf826151b7565b9150614fea836151b7565b9250816f7fffffffffffffffffffffffffffffff038313600083121516156150155761501461534b565b5b817fffffffffffffffffffffffffffffffff8000000000000000000000000000000003831260008312161561504d5761504c61534b565b5b828201905092915050565b6000615063826151f1565b915061506e836151f1565b9250827fffffffffffffffffffffffffffffffffffffffffffffffffffffffffffffffff038211156150a3576150a261534b565b5b828201905092915050565b60006150b9826151f1565b91506150c4836151f1565b9250826150d4576150d361537a565b5b828204905092915050565b60006150ea826151f1565b91506150f5836151f1565b9250817fffffffffffffffffffffffffffffffffffffffffffffffffffffffffffffffff048311821515161561512e5761512d61534b565b5b828202905092915050565b6000615144826151f1565b915061514f836151f1565b9250828210156151625761516161534b565b5b828203905092915050565b6000615178826151d1565b9050919050565b60008115159050919050565b60007fffffffff0000000000000000000000000000000000000000000000000000000082169050919050565b600081600f0b9050919050565b60008160070b9050919050565b600073ffffffffffffffffffffffffffffffffffffffff82169050919050565b6000819050919050565b82818337600083830152505050565b60005b8381101561522857808201518184015260208101905061520d565b83811115615237576000848401525b50505050565b6000600282049050600182168061525557607f821691505b60208210811415615269576152686153a9565b5b50919050565b61527882615407565b810181811067ffffffffffffffff82111715615297576152966153d8565b5b80604052505050565b60006152ab826151f1565b91507fffffffffffffffffffffffffffffffffffffffffffffffffffffffffffffffff8214156152de576152dd61534b565b5b600182019050919050565b60006152f4826151c4565b91506152ff836151c4565b92508261530f5761530e61537a565b5b828207905092915050565b6000615325826151f1565b9150615330836151f1565b9250826153405761533f61537a565b5b828206905092915050565b7f4e487b7100000000000000000000000000000000000000000000000000000000600052601160045260246000fd5b7f4e487b7100000000000000000000000000000000000000000000000000000000600052601260045260246000fd5b7f4e487b7100000000000000000000000000000000000000000000000000000000600052602260045260246000fd5b7f4e487b7100000000000000000000000000000000000000000000000000000000600052604160045260246000fd5b6000601f19601f8301169050919050565b7f4d696e7420616d6f756e74203c3d203300000000000000000000000000000000600082015250565b7f4552433732313a207472616e7366657220746f206e6f6e20455243373231526560008201527f63656976657220696d706c656d656e7465720000000000000000000000000000602082015250565b7f4f776e61626c653a206e6577206f776e657220697320746865207a65726f206160008201527f6464726573730000000000000000000000000000000000000000000000000000602082015250565b7f4552433732313a20746f6b656e20616c7265616479206d696e74656400000000600082015250565b7f4552433732313a207472616e7366657220746f20746865207a65726f2061646460008201527f7265737300000000000000000000000000000000000000000000000000000000602082015250565b7f646174613a6170706c69636174696f6e2f6a736f6e3b757466382c7b226e616d60008201527f65223a2254656172222c20226465736372697074696f6e223a2254657374206660208201527f6f72207570636f6d696e67206172743a20746f6b656e49642000000000000000604082015250565b7f4552433732313a20617070726f766520746f2063616c6c657200000000000000600082015250565b7f4552433732313a206f70657261746f7220717565727920666f72206e6f6e657860008201527f697374656e7420746f6b656e0000000000000000000000000000000000000000602082015250565b7f4552433732313a20617070726f76652063616c6c6572206973206e6f74206f7760008201527f6e6572206e6f7220617070726f76656420666f7220616c6c0000000000000000602082015250565b7f2e00000000000000000000000000000000000000000000000000000000000000600082015250565b7f4552433732313a2062616c616e636520717565727920666f7220746865207a6560008201527f726f206164647265737300000000000000000000000000000000000000000000602082015250565b7f4552433732313a206f776e657220717565727920666f72206e6f6e657869737460008201527f656e7420746f6b656e0000000000000000000000000000000000000000000000602082015250565b7f227d000000000000000000000000000000000000000000000000000000000000600082015250565b7f4552433732313a206d696e7420746f20746865207a65726f2061646472657373600082015250565b7f4552433732313a20617070726f76656420717565727920666f72206e6f6e657860008201527f697374656e7420746f6b656e0000000000000000000000000000000000000000602082015250565b7f6d696e7420616d6f756e742073686f756c64206265203e203000000000000000600082015250565b7f4f776e61626c653a2063616c6c6572206973206e6f7420746865206f776e6572600082015250565b7f4d6178696d756d20737570706c79206c696d69742065786365656465642e2000600082015250565b7f4552433732313a207472616e73666572206f6620746f6b656e2074686174206960008201527f73206e6f74206f776e0000000000000000000000000000000000000000000000602082015250565b7f222c2022637265617465645f6279223a222d284f5f30292d222c20226174747260008201527f696275746573223a22222c2022696d616765223a220000000000000000000000602082015250565b7f4552433732314d657461646174613a2055524920717565727920666f72206e6f60008201527f6e6578697374656e7420746f6b656e0000000000000000000000000000000000602082015250565b7f4552433732313a20617070726f76616c20746f2063757272656e74206f776e6560008201527f7200000000000000000000000000000000000000000000000000000000000000602082015250565b7f4552433732313a207472616e736665722063616c6c6572206973206e6f74206f60008201527f776e6572206e6f7220617070726f766564000000000000000000000000000000602082015250565b615a0a8161516d565b8114615a1557600080fd5b50565b615a218161517f565b8114615a2c57600080fd5b50565b615a388161518b565b8114615a4357600080fd5b50565b615a4f816151f1565b8114615a5a57600080fd5b5056fea2646970667358221220ce03799bde414d57bb465aa47494b41d3adbc624be09340584642b45b7dd285a64736f6c63430008040033252927202f3e3c73746f70206f66667365743d27353025272073746f702d636f6c6f723d2768736c2835392c20313030252c203530252927202f3e3c73746f70206f66667365743d2731303025272073746f702d636f6c6f723d2768736c283c636972636c652063783d273237272063793d2733312720723d2733272066696c6c3d272330303027207374726f6b653d272330303027207374726f6b652d6c696e656361703d27726f756e6427207374726f6b652d6c696e656a6f696e3d27726f756e6427207374726f6b652d77696474683d27302e31272f3e3c73766720786d6c6e733d27687474703a2f2f7777772e77332e6f72672f323030302f737667272069643d27656d6f6a692d6e6674272076696577426f783d2730203020373220373227203e3c646566733e203c706174682066696c6c3d276e6f6e6527207374726f6b653d272330303027207374726f6b652d6c696e656361703d27726f756e6427207374726f6b652d6c696e656a6f696e3d27726f756e6427207374726f6b652d77696474683d27322720643d274d34342e313532312c34352e373637386132302e303430382c32302e303430382c302c302c312d31372e3936372d2e38333835272f3e3c706174682066696c6c3d272339326433663527207374726f6b653d272330303027207374726f6b652d6d697465726c696d69743d27313027207374726f6b652d77696474683d27322720643d274d34342e353431362c34362e3231363961332e363337362c332e363337362c302c302c312d312e313035322d322e35373634632d2e303430352d332e323230352c322e393635312d362e33342c332e303932392d362e34373132612e363839312e363839312c302c302c312c2e393734382d2e30313233632e313331332e313238312c332e323134332c332e313731332c332e323535352c362e333932346c302c3061332e363632362c332e363632362c302c302c312d362e323138332c322e363637335a272f3e3c66696c7465722069643d2766332720783d272d302e352720793d272d302e35272077696474683d273330302527206865696768743d2733303025273e3c66654f666673657420726573756c743d276f66664f75742720696e3d27536f75726365416c706861272064783d273130272064793d27313527202f3e3c6665476175737369616e426c757220726573756c743d27626c75724f75742720696e3d276f66664f75742720737464446576696174696f6e3d27313027202f3e3c6665426c656e6420696e3d27536f75726365477261706869632720696e323d27626c75724f757427206d6f64653d276e6f726d616c27202f3e3c2f66696c7465723e3c2f646566733e3c636972636c652063783d273435272063793d2733312720723d2733272066696c6c3d272330303027207374726f6b653d272330303027207374726f6b652d6c696e656361703d27726f756e6427207374726f6b652d6c696e656a6f696e3d27726f756e6427207374726f6b652d77696474683d27302e31272f3e3c6c696e6561724772616469656e742069643d2767272078313d2730272078323d2730272079313d2730272079323d2731273e3c73746f70206f66667365743d273025272073746f702d636f6c6f723d2768736c28272066696c6c3d2775726c2823672927202066696c7465723d2775726c282366332927207374726f6b653d272330303027207374726f6b652d6c696e656361703d27726f756e6427207374726f6b652d6c696e656a6f696e3d27726f756e6427207374726f6b652d77696474683d2732272f3e",
  "linkReferences": {},
  "deployedLinkReferences": {}
}